:020000040800F2
:100000000050002025080008710800087108000849
:1000100071080008710800087108000871080008DC
:1000200071080008710800087108000871080008CC
:1000300071080008710800087108000871080008BC
:1000400071080008710800087108000871080008AC
:10005000710800087108000871080008710800089C
:10006000710800087108000871080008710800088C
:10007000710800087108000871080008710800087C
:10008000710800087108000871080008710800086C
:10009000710800087108000871080008710800085C
:1000A000710800087108000871080008710800084C
:1000B000710800087108000871080008710800083C
:1000C000710800087108000871080008710800082C
:1000D00071080008E90200087108000871080008AA
:1000E000710800087108000871080008710800080C
:1000F00071080008710800087108000871080008FC
:1001000071080008710800087108000871080008EB
:1001100071080008710800087108000871080008DB
:1001200071080008710800087108000871080008CB
:1001300008B500F00BF800F04DFA034800F07EFA25
:1001400000F08AFAFCE700BF740800081A4AF0B40D
:1001500090694FF0804340F00400906101204727F0
:1001600040F2E736002515490C6824F00F040C60B6
:100170000C6844F00B040C60D1690143D1619F62AB
:10018000DE625D639A69F0BC22F070029A619A693E
:1001900042F060029A619A6942F008029A611A6A12
:1001A00002431A621A6842F080021A6058611A68A3
:1001B00002431A60704700BF00100240000801406F
:1001C000642828BF64200A490A4B08701A7802F094
:1001D000FF030AB10B78DBB24FF08042D06A0649C8
:1001E00000FB0333A1FB03135B095363704700BF9C
:1001F00000000020080000201F85EB51014B1878FB
:10020000704700BF0000002001220A4B1A701A78C4
:1002100002F0FF0312B1084B1B78DBB24FF08042B3
:10022000D06A064900FB0333A1FB03135B09536348
:10023000704700BF08000020000000201F85EB5120
:1002400000220A4B1A701A7802F0FF0312B1084B11
:100250001B78DBB24FF08042D06A064900FB0333C3
:10026000A1FB03135B095363704700BF0800002024
:10027000000000201F85EB51014B1878704700BF2C
:1002800008000020632827D9154A13681906FCD5F1
:10029000312353601349124AA1FB00C3DB08A1FBC1
:1002A00003C1C90801EB8101A3EB41013031C9B29F
:1002B00013681B06FCD551600A4B094AA3FB0013C7
:1002C000DB0803EB8303A0EB43003030C0B21368BC
:1002D0001B06FCD5506070470928EDD9DAE700BF4E
:1002E00000380140CDCCCCCCF8B5984B1A689206BA
:1002F0003CD55B68DBB2212B45D8072B37D9A3F15E
:100300000802192A33D8DFE802F040320D32320DEC
:1003100032323232323232323232323232323232BD
:100320003232324A8A4D8B4C2B78227813431AD0C2
:1003300089498A4A0B781278013303F00703934204
:1003400011D0022700260A78854802EB4202875422
:100350000A7802EB4202024456700A7802EB42022B
:10036000104486700B7000232B702370F8BD794CFD
:1003700022788AB976490A781E2A0DD8794C501C01
:10038000A3540870F8BD7F2BF1D1714A1378002B6C
:10039000ECD0013B1370F8BD01232370F8BD6C4D08
:1003A0006C4C287808B12378DBB16B486B4A037832
:1003B0001278013303F007039342D4D002270026BA
:1003C0000278674902EB42028F54027802EB420244
:1003D0000A445670027802EB420211448E70037098
:1003E000C1E760490F780B54002FDED03E464F2204
:1003F000DFF874C10133B242DBB26CD1CE5C002EA7
:100400006DD01CF80320002AF4D13E464F23DFF8BC
:100410005CC10132B342D2B240F08C808E5C002EBF
:1004200000F08A801CF80230002BF2D13E465322A5
:10043000DFF83CC107E0B24209D1CE5C002E00F0EB
:1004400099801CF803200133DBB2002AF3D1052880
:10045000ABD9502FA9D14B78572BA6D18B784D2BE8
:10046000A3D1CB783A2BA0D101380B5C252B9CD1A2
:10047000002304268A5D03EB8303303A02EB430337
:10048000D2B2092A9BB206F101068ED8642B8CD811
:100490008642EFD3D8B2FFF793FEFFF7AFFE0746D1
:1004A000FFF7EAFE2C492D4A0B781278013303F04E
:1004B0000703934206463FF456AF4FF0000C0A780C
:1004C000274802EB420200F802C00A7802EB42021F
:1004D0000244577041E73E4600224F2397E7224AE5
:1004E000D35C83BBFFF790FEFFF788FE0746FFF75C
:1004F000C3FEDFF864C0194A9CF80030127801335B
:1005000003F0070393423FF42EAF9CF800201449F8
:1005100002EB42028E549CF8002002EB42020A4495
:1005200057709CF8002002EB4202114488708CF84E
:10053000003018E7002379E70C4B9B5C002BF9D1C6
:10054000FFF77EFED0E732465FE700BF003801408C
:1005500025000020240000200A00002009000020BF
:100560000C00002028000020F8080008F40800080B
:10057000EC080008134AD35C002B7FF468AFFFF748
:100580003DFE114F0646FFF777FE3B780F4A0133D9
:10059000127803F0070393423FF4E5AE4FF0010CED
:1005A0003A780B4902EB420201F802C03A7802EBBA
:1005B00042020A4456703A7802EB420211448870B3
:1005C0003B70D0E6EC0800080A000020090000207B
:1005D0000C000020F0B44FF0E0202024002741F66A
:1005E0004C5642F22C054FF4806C124A936943F446
:1005F000804343F0040393610F4BA2F558425968BE
:1006000021F0F0015960596841F0B0015960596812
:1006100021F470615960596841F400615960C3F870
:1006200010C0D7609660D560C0F88442C0F804411D
:10063000F0BC70470010024000080140017841B151
:10064000044A13681B06FCD5516010F8011F0029ED
:10065000F7D17047003801402DE9F843DFF82881D1
:100660004A4E98F8002033789A4250D0DFF8209113
:10067000484C494D494F98F8003003EB430319F8B3
:10068000032098F80030022A03EB43034B445878C8
:1006900098F80030D1B203EB43034B4493F802C007
:1006A00098F80030C0B203F1010303F007035FFACA
:1006B0008CFC88F8003056D001292AD04F223849C6
:1006C00023681B06FCD5626011F8012F002AF7D1C0
:1006D000BCF1000F0CBF294639464F2223681B0688
:1006E000FCD5626011F8012F002AF7D1FFF7CAFD8F
:1006F00025222C4923681B06FCD5626011F8012FC6
:10070000002AF7D198F8002033789A42B3D1BDE897
:10071000F8835322244923681B06FCD5626011F834
:10072000012F002AF7D1BCF1000F0CBF2946394632
:100730004F2223681B06FCD5626011F8012F002AA6
:10074000F7D1FFF79FFD2522164923681806FCD52F
:10075000626011F8012F002AF7D198F80020337851
:100760009A4288D1D3E74522104923681806FCD560
:10077000626011F8012F002AF7D198F80020337831
:100780009A427FF478AFC2E7090000200A000020F7
:100790000C00002000380140B0080008A408000840
:1007A000DC080008D8080008E0080008BC080008B9
:1007B0001221164B164A1960136843F480331360F4
:1007C00013689903FCD55068124B114903405360DC
:1007D000536843F4E81343F480635360136843F0B1
:1007E000807313600B689B01FCD54B68084A23F0AB
:1007F000030343F002034B60536803F00C03082B20
:10080000FAD1054B054A1A60704700BF002002402C
:10081000001002400CC0C0FF0400002000A24A04E7
:10082000704700BF0D480E490E4A914200D304E0C4
:1008300050F8043B41F8043BF7E70B490B4A00230F
:10084000914200D302E041F8043BF9E7FFF7B0FF23
:10085000FFF7E6FFFFF76CFCFEE70000FC0800086E
:1008600000000020080000200800002048000020B0
:10087000FEE70000436F6D6D616E64733A204F4E6A
:10088000212C204F4646212C2050574D3A3C302EEB
:100890002E3130303E25212C205374617475732124
:1008A0000D0A00004F4E2C2050574D3A000000001A
:1008B0004F46462C2050574D3A0000004552524FAB
:1008C000523A20696E76616C696420636F6D6D6168
:1008D0006E640D0A00000000250D0A004F4B2C200D
:1008E0005374617475733A2000000000537461748E
:0C08F000757300004F4646004F4E00009C
:0808FC006400000000A24A04A0
:0400000508000825C2
:00000001FF
