:020000040800F2
:1000000000500020410200088D0200088D02000807
:100010008D0200088D0200088D0200088D02000884
:100020008D0200088D0200088D0200088D02000874
:100030008D0200088D0200088D0200088D02000864
:100040008D0200088D0200088D0200088D02000854
:100050008D0200088D0200088D0200088D02000844
:100060008D0200088D0200088D0200088D02000834
:100070008D0200088D0200088D0200088D02000824
:100080008D0200088D0200088D0200088D02000814
:100090008D0200088D0200088D0200088D02000804
:1000A0008D0200088D0200088D0200088D020008F4
:1000B0008D0200088D0200088D0200088D020008E4
:1000C0008D0200088D0200088D0200088D020008D4
:1000D0008D0200088D0200088D0200088D020008C4
:1000E0008D0200088D0200088D0200088D020008B4
:1000F0008D0200088D0200088D0200088D020008A4
:100100008D0200088D0200088D0200088D02000893
:100110008D0200088D0200088D0200088D02000883
:100120008D0200088D0200088D0200088D02000873
:1001300008B500F003F800F015F8FEE70749084A93
:100140008B6943F004038B6113681B0C1B0443F49D
:100150003B4343F0BB031360704700BF00100240F5
:10016000000801402DE9F04F01254FF0804346F68D
:1001700068014FF0470B40F2E73A4FF064094FF443
:1001800096784FF4FA7E4FF42F7C41F211178026B7
:1001900000240D48C2692A43C261C3F828B0C3F8DD
:1001A0002CA0C3F83490C3F83880C3F83CE0C3F8FF
:1001B00040C09961D9611F621E605D611C611A684F
:1001C0002A431A60BDE8F08F001002401221164B3E
:1001D000164A1960136843F4803313601368990357
:1001E000FCD55068124B114903405360536843F4E7
:1001F000E81343F480635360136843F08073136023
:100200000B689B01FCD54B68084A23F0030343F0BD
:1002100002034B60536803F00C03082BFAD1054B23
:10022000054A1A60704700BF0020024000100240DB
:100230000CC0C0FF0000002000A24A04704700BFAD
:100240000D480E490E4A914200D304E050F8043B99
:1002500041F8043BF7E70B490B4A0023914200D3D6
:1002600002E041F8043BF9E7FFF7B0FFFFF7E6FFD4
:10027000FFF75EFFFEE7000090020008000000208C
:10028000040000200400002004000020FEE700001D
:0402900000A24A047A
:0400000508000241AC
:00000001FF
